{
  "_format": "hh-sol-artifact-1",
  "contractName": "NftMarket",
  "sourceName": "contracts/NftMarket.sol",
  "abi": [
    {
      "inputs": [
        {
          "internalType": "address",
          "name": "initialOwner",
          "type": "address"
        }
      ],
      "stateMutability": "nonpayable",
      "type": "constructor"
    },
    {
      "inputs": [
        {
          "internalType": "address",
          "name": "sender",
          "type": "address"
        },
        {
          "internalType": "uint256",
          "name": "tokenId",
          "type": "uint256"
        },
        {
          "internalType": "address",
          "name": "owner",
          "type": "address"
        }
      ],
      "name": "ERC721IncorrectOwner",
      "type": "error"
    },
    {
      "inputs": [
        {
          "internalType": "address",
          "name": "operator",
          "type": "address"
        },
        {
          "internalType": "uint256",
          "name": "tokenId",
          "type": "uint256"
        }
      ],
      "name": "ERC721InsufficientApproval",
      "type": "error"
    },
    {
      "inputs": [
        {
          "internalType": "address",
          "name": "approver",
          "type": "address"
        }
      ],
      "name": "ERC721InvalidApprover",
      "type": "error"
    },
    {
      "inputs": [
        {
          "internalType": "address",
          "name": "operator",
          "type": "address"
        }
      ],
      "name": "ERC721InvalidOperator",
      "type": "error"
    },
    {
      "inputs": [
        {
          "internalType": "address",
          "name": "owner",
          "type": "address"
        }
      ],
      "name": "ERC721InvalidOwner",
      "type": "error"
    },
    {
      "inputs": [
        {
          "internalType": "address",
          "name": "receiver",
          "type": "address"
        }
      ],
      "name": "ERC721InvalidReceiver",
      "type": "error"
    },
    {
      "inputs": [
        {
          "internalType": "address",
          "name": "sender",
          "type": "address"
        }
      ],
      "name": "ERC721InvalidSender",
      "type": "error"
    },
    {
      "inputs": [
        {
          "internalType": "uint256",
          "name": "tokenId",
          "type": "uint256"
        }
      ],
      "name": "ERC721NonexistentToken",
      "type": "error"
    },
    {
      "inputs": [
        {
          "internalType": "address",
          "name": "owner",
          "type": "address"
        }
      ],
      "name": "OwnableInvalidOwner",
      "type": "error"
    },
    {
      "inputs": [
        {
          "internalType": "address",
          "name": "account",
          "type": "address"
        }
      ],
      "name": "OwnableUnauthorizedAccount",
      "type": "error"
    },
    {
      "anonymous": false,
      "inputs": [
        {
          "indexed": true,
          "internalType": "address",
          "name": "owner",
          "type": "address"
        },
        {
          "indexed": true,
          "internalType": "address",
          "name": "approved",
          "type": "address"
        },
        {
          "indexed": true,
          "internalType": "uint256",
          "name": "tokenId",
          "type": "uint256"
        }
      ],
      "name": "Approval",
      "type": "event"
    },
    {
      "anonymous": false,
      "inputs": [
        {
          "indexed": true,
          "internalType": "address",
          "name": "owner",
          "type": "address"
        },
        {
          "indexed": true,
          "internalType": "address",
          "name": "operator",
          "type": "address"
        },
        {
          "indexed": false,
          "internalType": "bool",
          "name": "approved",
          "type": "bool"
        }
      ],
      "name": "ApprovalForAll",
      "type": "event"
    },
    {
      "anonymous": false,
      "inputs": [
        {
          "indexed": false,
          "internalType": "uint256",
          "name": "_fromTokenId",
          "type": "uint256"
        },
        {
          "indexed": false,
          "internalType": "uint256",
          "name": "_toTokenId",
          "type": "uint256"
        }
      ],
      "name": "BatchMetadataUpdate",
      "type": "event"
    },
    {
      "anonymous": false,
      "inputs": [
        {
          "indexed": false,
          "internalType": "uint256",
          "name": "_tokenId",
          "type": "uint256"
        }
      ],
      "name": "MetadataUpdate",
      "type": "event"
    },
    {
      "anonymous": false,
      "inputs": [
        {
          "indexed": false,
          "internalType": "uint256",
          "name": "tokenId",
          "type": "uint256"
        },
        {
          "indexed": false,
          "internalType": "uint256",
          "name": "price",
          "type": "uint256"
        },
        {
          "indexed": false,
          "internalType": "address",
          "name": "creator",
          "type": "address"
        },
        {
          "indexed": false,
          "internalType": "bool",
          "name": "islisted",
          "type": "bool"
        }
      ],
      "name": "NftItemCreated",
      "type": "event"
    },
    {
      "anonymous": false,
      "inputs": [
        {
          "indexed": true,
          "internalType": "address",
          "name": "previousOwner",
          "type": "address"
        },
        {
          "indexed": true,
          "internalType": "address",
          "name": "newOwner",
          "type": "address"
        }
      ],
      "name": "OwnershipTransferred",
      "type": "event"
    },
    {
      "anonymous": false,
      "inputs": [
        {
          "indexed": true,
          "internalType": "address",
          "name": "from",
          "type": "address"
        },
        {
          "indexed": true,
          "internalType": "address",
          "name": "to",
          "type": "address"
        },
        {
          "indexed": true,
          "internalType": "uint256",
          "name": "tokenId",
          "type": "uint256"
        }
      ],
      "name": "Transfer",
      "type": "event"
    },
    {
      "inputs": [
        {
          "internalType": "address",
          "name": "to",
          "type": "address"
        },
        {
          "internalType": "uint256",
          "name": "tokenId",
          "type": "uint256"
        }
      ],
      "name": "approve",
      "outputs": [],
      "stateMutability": "nonpayable",
      "type": "function"
    },
    {
      "inputs": [
        {
          "internalType": "address",
          "name": "owner",
          "type": "address"
        }
      ],
      "name": "balanceOf",
      "outputs": [
        {
          "internalType": "uint256",
          "name": "",
          "type": "uint256"
        }
      ],
      "stateMutability": "view",
      "type": "function"
    },
    {
      "inputs": [
        {
          "internalType": "uint256",
          "name": "tokenId",
          "type": "uint256"
        }
      ],
      "name": "buyNft",
      "outputs": [],
      "stateMutability": "payable",
      "type": "function"
    },
    {
      "inputs": [],
      "name": "getAllNftsOnSale",
      "outputs": [
        {
          "components": [
            {
              "internalType": "uint256",
              "name": "tokenId",
              "type": "uint256"
            },
            {
              "internalType": "uint256",
              "name": "price",
              "type": "uint256"
            },
            {
              "internalType": "address",
              "name": "creator",
              "type": "address"
            },
            {
              "internalType": "bool",
              "name": "isListed",
              "type": "bool"
            }
          ],
          "internalType": "struct NftMarket.NftItem[]",
          "name": "",
          "type": "tuple[]"
        }
      ],
      "stateMutability": "view",
      "type": "function"
    },
    {
      "inputs": [
        {
          "internalType": "uint256",
          "name": "tokenId",
          "type": "uint256"
        }
      ],
      "name": "getApproved",
      "outputs": [
        {
          "internalType": "address",
          "name": "",
          "type": "address"
        }
      ],
      "stateMutability": "view",
      "type": "function"
    },
    {
      "inputs": [
        {
          "internalType": "uint256",
          "name": "tokenId",
          "type": "uint256"
        }
      ],
      "name": "getNftItem",
      "outputs": [
        {
          "components": [
            {
              "internalType": "uint256",
              "name": "tokenId",
              "type": "uint256"
            },
            {
              "internalType": "uint256",
              "name": "price",
              "type": "uint256"
            },
            {
              "internalType": "address",
              "name": "creator",
              "type": "address"
            },
            {
              "internalType": "bool",
              "name": "isListed",
              "type": "bool"
            }
          ],
          "internalType": "struct NftMarket.NftItem",
          "name": "",
          "type": "tuple"
        }
      ],
      "stateMutability": "view",
      "type": "function"
    },
    {
      "inputs": [
        {
          "internalType": "address",
          "name": "creator",
          "type": "address"
        }
      ],
      "name": "getNftsCreatedBy",
      "outputs": [
        {
          "components": [
            {
              "internalType": "uint256",
              "name": "tokenId",
              "type": "uint256"
            },
            {
              "internalType": "uint256",
              "name": "price",
              "type": "uint256"
            },
            {
              "internalType": "address",
              "name": "creator",
              "type": "address"
            },
            {
              "internalType": "bool",
              "name": "isListed",
              "type": "bool"
            }
          ],
          "internalType": "struct NftMarket.NftItem[]",
          "name": "",
          "type": "tuple[]"
        }
      ],
      "stateMutability": "view",
      "type": "function"
    },
    {
      "inputs": [],
      "name": "getOwnedNfts",
      "outputs": [
        {
          "components": [
            {
              "internalType": "uint256",
              "name": "tokenId",
              "type": "uint256"
            },
            {
              "internalType": "uint256",
              "name": "price",
              "type": "uint256"
            },
            {
              "internalType": "address",
              "name": "creator",
              "type": "address"
            },
            {
              "internalType": "bool",
              "name": "isListed",
              "type": "bool"
            }
          ],
          "internalType": "struct NftMarket.NftItem[]",
          "name": "",
          "type": "tuple[]"
        }
      ],
      "stateMutability": "view",
      "type": "function"
    },
    {
      "inputs": [
        {
          "internalType": "address",
          "name": "owner",
          "type": "address"
        },
        {
          "internalType": "address",
          "name": "operator",
          "type": "address"
        }
      ],
      "name": "isApprovedForAll",
      "outputs": [
        {
          "internalType": "bool",
          "name": "",
          "type": "bool"
        }
      ],
      "stateMutability": "view",
      "type": "function"
    },
    {
      "inputs": [],
      "name": "listedItemsCount",
      "outputs": [
        {
          "internalType": "uint256",
          "name": "",
          "type": "uint256"
        }
      ],
      "stateMutability": "view",
      "type": "function"
    },
    {
      "inputs": [],
      "name": "listingPrice",
      "outputs": [
        {
          "internalType": "uint256",
          "name": "",
          "type": "uint256"
        }
      ],
      "stateMutability": "view",
      "type": "function"
    },
    {
      "inputs": [
        {
          "internalType": "string",
          "name": "tokenURI",
          "type": "string"
        },
        {
          "internalType": "uint256",
          "name": "price",
          "type": "uint256"
        }
      ],
      "name": "mintToken",
      "outputs": [
        {
          "internalType": "uint256",
          "name": "",
          "type": "uint256"
        }
      ],
      "stateMutability": "payable",
      "type": "function"
    },
    {
      "inputs": [],
      "name": "name",
      "outputs": [
        {
          "internalType": "string",
          "name": "",
          "type": "string"
        }
      ],
      "stateMutability": "view",
      "type": "function"
    },
    {
      "inputs": [],
      "name": "owner",
      "outputs": [
        {
          "internalType": "address",
          "name": "",
          "type": "address"
        }
      ],
      "stateMutability": "view",
      "type": "function"
    },
    {
      "inputs": [
        {
          "internalType": "uint256",
          "name": "tokenId",
          "type": "uint256"
        }
      ],
      "name": "ownerOf",
      "outputs": [
        {
          "internalType": "address",
          "name": "",
          "type": "address"
        }
      ],
      "stateMutability": "view",
      "type": "function"
    },
    {
      "inputs": [
        {
          "internalType": "uint256",
          "name": "tokenId",
          "type": "uint256"
        }
      ],
      "name": "ownerOfTokenURI",
      "outputs": [
        {
          "internalType": "address",
          "name": "",
          "type": "address"
        }
      ],
      "stateMutability": "view",
      "type": "function"
    },
    {
      "inputs": [
        {
          "internalType": "uint256",
          "name": "tokenId",
          "type": "uint256"
        },
        {
          "internalType": "uint256",
          "name": "newPrice",
          "type": "uint256"
        }
      ],
      "name": "placeNftOnSale",
      "outputs": [],
      "stateMutability": "payable",
      "type": "function"
    },
    {
      "inputs": [],
      "name": "renounceOwnership",
      "outputs": [],
      "stateMutability": "nonpayable",
      "type": "function"
    },
    {
      "inputs": [
        {
          "internalType": "address",
          "name": "from",
          "type": "address"
        },
        {
          "internalType": "address",
          "name": "to",
          "type": "address"
        },
        {
          "internalType": "uint256",
          "name": "tokenId",
          "type": "uint256"
        }
      ],
      "name": "safeTransferFrom",
      "outputs": [],
      "stateMutability": "nonpayable",
      "type": "function"
    },
    {
      "inputs": [
        {
          "internalType": "address",
          "name": "from",
          "type": "address"
        },
        {
          "internalType": "address",
          "name": "to",
          "type": "address"
        },
        {
          "internalType": "uint256",
          "name": "tokenId",
          "type": "uint256"
        },
        {
          "internalType": "bytes",
          "name": "data",
          "type": "bytes"
        }
      ],
      "name": "safeTransferFrom",
      "outputs": [],
      "stateMutability": "nonpayable",
      "type": "function"
    },
    {
      "inputs": [
        {
          "internalType": "address",
          "name": "operator",
          "type": "address"
        },
        {
          "internalType": "bool",
          "name": "approved",
          "type": "bool"
        }
      ],
      "name": "setApprovalForAll",
      "outputs": [],
      "stateMutability": "nonpayable",
      "type": "function"
    },
    {
      "inputs": [
        {
          "internalType": "uint256",
          "name": "newPrice",
          "type": "uint256"
        }
      ],
      "name": "setListingPrice",
      "outputs": [],
      "stateMutability": "nonpayable",
      "type": "function"
    },
    {
      "inputs": [
        {
          "internalType": "bytes4",
          "name": "interfaceId",
          "type": "bytes4"
        }
      ],
      "name": "supportsInterface",
      "outputs": [
        {
          "internalType": "bool",
          "name": "",
          "type": "bool"
        }
      ],
      "stateMutability": "view",
      "type": "function"
    },
    {
      "inputs": [],
      "name": "symbol",
      "outputs": [
        {
          "internalType": "string",
          "name": "",
          "type": "string"
        }
      ],
      "stateMutability": "view",
      "type": "function"
    },
    {
      "inputs": [
        {
          "internalType": "uint256",
          "name": "index",
          "type": "uint256"
        }
      ],
      "name": "tokenByIndex",
      "outputs": [
        {
          "internalType": "uint256",
          "name": "",
          "type": "uint256"
        }
      ],
      "stateMutability": "view",
      "type": "function"
    },
    {
      "inputs": [
        {
          "internalType": "address",
          "name": "owner",
          "type": "address"
        },
        {
          "internalType": "uint256",
          "name": "index",
          "type": "uint256"
        }
      ],
      "name": "tokenOfOwnerByIndex",
      "outputs": [
        {
          "internalType": "uint256",
          "name": "",
          "type": "uint256"
        }
      ],
      "stateMutability": "view",
      "type": "function"
    },
    {
      "inputs": [
        {
          "internalType": "uint256",
          "name": "tokenId",
          "type": "uint256"
        }
      ],
      "name": "tokenURI",
      "outputs": [
        {
          "internalType": "string",
          "name": "",
          "type": "string"
        }
      ],
      "stateMutability": "view",
      "type": "function"
    },
    {
      "inputs": [
        {
          "internalType": "string",
          "name": "tokenURI",
          "type": "string"
        }
      ],
      "name": "tokenURIExits",
      "outputs": [
        {
          "internalType": "bool",
          "name": "",
          "type": "bool"
        }
      ],
      "stateMutability": "view",
      "type": "function"
    },
    {
      "inputs": [],
      "name": "totalSupply",
      "outputs": [
        {
          "internalType": "uint256",
          "name": "",
          "type": "uint256"
        }
      ],
      "stateMutability": "view",
      "type": "function"
    },
    {
      "inputs": [
        {
          "internalType": "address",
          "name": "from",
          "type": "address"
        },
        {
          "internalType": "address",
          "name": "to",
          "type": "address"
        },
        {
          "internalType": "uint256",
          "name": "tokenId",
          "type": "uint256"
        }
      ],
      "name": "transferFrom",
      "outputs": [],
      "stateMutability": "nonpayable",
      "type": "function"
    },
    {
      "inputs": [
        {
          "internalType": "address",
          "name": "newOwner",
          "type": "address"
        }
      ],
      "name": "transferOwnership",
      "outputs": [],
      "stateMutability": "nonpayable",
      "type": "function"
    }
  ],
  "bytecode": "0x60806040526658d15e176280006008553480156200001c57600080fd5b5060405162004d4b38038062004d4b833981810160405281019062000042919062000293565b806040518060400160405280600c81526020017f4372656174757265734e465400000000000000000000000000000000000000008152506040518060400160405280600481526020017f434e4654000000000000000000000000000000000000000000000000000000008152508160009081620000c091906200053f565b508060019081620000d291906200053f565b505050600073ffffffffffffffffffffffffffffffffffffffff168173ffffffffffffffffffffffffffffffffffffffff16036200014a5760006040517f1e4fbdf700000000000000000000000000000000000000000000000000000000815260040162000141919062000637565b60405180910390fd5b6200015b816200016360201b60201c565b505062000654565b6000600760009054906101000a900473ffffffffffffffffffffffffffffffffffffffff16905081600760006101000a81548173ffffffffffffffffffffffffffffffffffffffff021916908373ffffffffffffffffffffffffffffffffffffffff1602179055508173ffffffffffffffffffffffffffffffffffffffff168173ffffffffffffffffffffffffffffffffffffffff167f8be0079c531659141344cd1fd0a4f28419497f9722a3daafe3b4186f6b6457e060405160405180910390a35050565b600080fd5b600073ffffffffffffffffffffffffffffffffffffffff82169050919050565b60006200025b826200022e565b9050919050565b6200026d816200024e565b81146200027957600080fd5b50565b6000815190506200028d8162000262565b92915050565b600060208284031215620002ac57620002ab62000229565b5b6000620002bc848285016200027c565b91505092915050565b600081519050919050565b7f4e487b7100000000000000000000000000000000000000000000000000000000600052604160045260246000fd5b7f4e487b7100000000000000000000000000000000000000000000000000000000600052602260045260246000fd5b600060028204905060018216806200034757607f821691505b6020821081036200035d576200035c620002ff565b5b50919050565b60008190508160005260206000209050919050565b60006020601f8301049050919050565b600082821b905092915050565b600060088302620003c77fffffffffffffffffffffffffffffffffffffffffffffffffffffffffffffffff8262000388565b620003d3868362000388565b95508019841693508086168417925050509392505050565b6000819050919050565b6000819050919050565b6000620004206200041a6200041484620003eb565b620003f5565b620003eb565b9050919050565b6000819050919050565b6200043c83620003ff565b620004546200044b8262000427565b84845462000395565b825550505050565b600090565b6200046b6200045c565b6200047881848462000431565b505050565b5b81811015620004a0576200049460008262000461565b6001810190506200047e565b5050565b601f821115620004ef57620004b98162000363565b620004c48462000378565b81016020851015620004d4578190505b620004ec620004e38562000378565b8301826200047d565b50505b505050565b600082821c905092915050565b60006200051460001984600802620004f4565b1980831691505092915050565b60006200052f838362000501565b9150826002028217905092915050565b6200054a82620002c5565b67ffffffffffffffff811115620005665762000565620002d0565b5b6200057282546200032e565b6200057f828285620004a4565b600060209050601f831160018114620005b75760008415620005a2578287015190505b620005ae858262000521565b8655506200061e565b601f198416620005c78662000363565b60005b82811015620005f157848901518255600182019150602085019450602081019050620005ca565b868310156200061157848901516200060d601f89168262000501565b8355505b6001600288020188555050505b505050505050565b62000631816200024e565b82525050565b60006020820190506200064e600083018462000626565b92915050565b6146e780620006646000396000f3fe6080604052600436106101d85760003560e01c806370a0823111610102578063b88d4fde11610095578063ccb4918d11610064578063ccb4918d146106e1578063de61fd831461070c578063e985e9c514610749578063f2fde38b14610786576101d8565b8063b88d4fde14610620578063c046372c14610649578063c78f19f914610679578063c87b56dd146106a4576101d8565b80638da5cb5b116100d15780638da5cb5b1461056457806395d89b411461058f578063a1d3981e146105ba578063a22cb465146105f7576101d8565b806370a08231146104bc57806370cbcb43146104f9578063715018a6146105245780637c726b691461053b576101d8565b8063243adbdd1161017a5780634f6ccce7116101495780634f6ccce7146103c857806360bee579146104055780636352211e146104425780636f1a0af51461047f576101d8565b8063243adbdd1461031b5780632f745c591461033757806336b536be1461037457806342842e0e1461039f576101d8565b8063095ea7b3116101b6578063095ea7b31461028257806318160ddd146102ab57806321f422e5146102d657806323b872dd146102f2576101d8565b806301ffc9a7146101dd57806306fdde031461021a578063081812fc14610245575b600080fd5b3480156101e957600080fd5b5061020460048036038101906101ff9190613292565b6107af565b60405161021191906132da565b60405180910390f35b34801561022657600080fd5b5061022f610810565b60405161023c9190613385565b60405180910390f35b34801561025157600080fd5b5061026c600480360381019061026791906133dd565b6108a2565b604051610279919061344b565b60405180910390f35b34801561028e57600080fd5b506102a960048036038101906102a49190613492565b6108be565b005b3480156102b757600080fd5b506102c06108d4565b6040516102cd91906134e1565b60405180910390f35b6102f060048036038101906102eb91906134fc565b6108e1565b005b3480156102fe57600080fd5b506103196004803603810190610314919061353c565b610a6d565b005b610335600480360381019061033091906133dd565b610b6f565b005b34801561034357600080fd5b5061035e60048036038101906103599190613492565b610ce5565b60405161036b91906134e1565b60405180910390f35b34801561038057600080fd5b50610389610d8a565b60405161039691906136c0565b60405180910390f35b3480156103ab57600080fd5b506103c660048036038101906103c1919061353c565b610f1d565b005b3480156103d457600080fd5b506103ef60048036038101906103ea91906133dd565b610f3d565b6040516103fc91906134e1565b60405180910390f35b34801561041157600080fd5b5061042c600480360381019061042791906133dd565b610fae565b604051610439919061344b565b60405180910390f35b34801561044e57600080fd5b50610469600480360381019061046491906133dd565b611002565b604051610476919061344b565b60405180910390f35b34801561048b57600080fd5b506104a660048036038101906104a191906133dd565b611014565b6040516104b39190613737565b60405180910390f35b3480156104c857600080fd5b506104e360048036038101906104de9190613752565b6110c6565b6040516104f091906134e1565b60405180910390f35b34801561050557600080fd5b5061050e611180565b60405161051b91906136c0565b60405180910390f35b34801561053057600080fd5b506105396112e4565b005b34801561054757600080fd5b50610562600480360381019061055d91906133dd565b6112f8565b005b34801561057057600080fd5b5061057961134d565b604051610586919061344b565b60405180910390f35b34801561059b57600080fd5b506105a4611377565b6040516105b19190613385565b60405180910390f35b3480156105c657600080fd5b506105e160048036038101906105dc91906138b4565b611409565b6040516105ee91906132da565b60405180910390f35b34801561060357600080fd5b5061061e60048036038101906106199190613929565b61143e565b005b34801561062c57600080fd5b5061064760048036038101906106429190613a0a565b611454565b005b610663600480360381019061065e9190613a8d565b611471565b60405161067091906134e1565b60405180910390f35b34801561068557600080fd5b5061068e61159a565b60405161069b91906134e1565b60405180910390f35b3480156106b057600080fd5b506106cb60048036038101906106c691906133dd565b6115a0565b6040516106d89190613385565b60405180910390f35b3480156106ed57600080fd5b506106f66116b3565b60405161070391906134e1565b60405180910390f35b34801561071857600080fd5b50610733600480360381019061072e9190613752565b6116bd565b60405161074091906136c0565b60405180910390f35b34801561075557600080fd5b50610770600480360381019061076b9190613ae9565b61197d565b60405161077d91906132da565b60405180910390f35b34801561079257600080fd5b506107ad60048036038101906107a89190613752565b611a11565b005b6000634906490660e01b7bffffffffffffffffffffffffffffffffffffffffffffffffffffffff1916827bffffffffffffffffffffffffffffffffffffffffffffffffffffffff19161480610809575061080882611a97565b5b9050919050565b60606000805461081f90613b58565b80601f016020809104026020016040519081016040528092919081815260200182805461084b90613b58565b80156108985780601f1061086d57610100808354040283529160200191610898565b820191906000526020600020905b81548152906001019060200180831161087b57829003601f168201915b5050505050905090565b60006108ad82611b79565b506108b782611c01565b9050919050565b6108d082826108cb611c3e565b611c46565b5050565b6000600b80549050905090565b3373ffffffffffffffffffffffffffffffffffffffff1661090183611002565b73ffffffffffffffffffffffffffffffffffffffff1614610957576040517f08c379a000000000000000000000000000000000000000000000000000000000815260040161094e90613bd5565b60405180910390fd5b60001515600d600084815260200190815260200160002060020160149054906101000a900460ff161515146109c1576040517f08c379a00000000000000000000000000000000000000000000000000000000081526004016109b890613c41565b60405180910390fd5b6008543414610a05576040517f08c379a00000000000000000000000000000000000000000000000000000000081526004016109fc90613cd3565b60405180910390fd5b6001600d600084815260200190815260200160002060020160146101000a81548160ff02191690831515021790555080600d600084815260200190815260200160002060010181905550600160096000828254610a629190613d22565b925050819055505050565b600073ffffffffffffffffffffffffffffffffffffffff168273ffffffffffffffffffffffffffffffffffffffff1603610adf5760006040517f64a0ae92000000000000000000000000000000000000000000000000000000008152600401610ad6919061344b565b60405180910390fd5b6000610af38383610aee611c3e565b611c58565b90508373ffffffffffffffffffffffffffffffffffffffff168173ffffffffffffffffffffffffffffffffffffffff1614610b69578382826040517f64283d7b000000000000000000000000000000000000000000000000000000008152600401610b6093929190613d56565b60405180910390fd5b50505050565b6000600d60008381526020019081526020016000206001015490506000610b9583611002565b90508073ffffffffffffffffffffffffffffffffffffffff163373ffffffffffffffffffffffffffffffffffffffff1603610c05576040517f08c379a0000000000000000000000000000000000000000000000000000000008152600401610bfc90613dd9565b60405180910390fd5b813414610c47576040517f08c379a0000000000000000000000000000000000000000000000000000000008152600401610c3e90613e45565b60405180910390fd5b6000600d600085815260200190815260200160002060020160146101000a81548160ff02191690831515021790555060096000815480929190610c8990613e65565b9190505550610c99813385611d75565b8073ffffffffffffffffffffffffffffffffffffffff166108fc349081150290604051600060405180830381858888f19350505050158015610cdf573d6000803e3d6000fd5b50505050565b6000610cf0836110c6565b8210610d31576040517f08c379a0000000000000000000000000000000000000000000000000000000008152600401610d2890613eda565b60405180910390fd5b600f60008473ffffffffffffffffffffffffffffffffffffffff1673ffffffffffffffffffffffffffffffffffffffff168152602001908152602001600020600083815260200190815260200160002054905092915050565b60606000610d966108d4565b905060008060095467ffffffffffffffff811115610db757610db6613789565b5b604051908082528060200260200182016040528015610df057816020015b610ddd6131e6565b815260200190600190039081610dd55790505b50905060005b83811015610f13576000610e0982610f3d565b90506000600d60008381526020019081526020016000209050600115158160020160149054906101000a900460ff16151503610efe578060405180608001604052908160008201548152602001600182015481526020016002820160009054906101000a900473ffffffffffffffffffffffffffffffffffffffff1673ffffffffffffffffffffffffffffffffffffffff1673ffffffffffffffffffffffffffffffffffffffff1681526020016002820160149054906101000a900460ff161515151581525050848681518110610ee357610ee2613efa565b5b6020026020010181905250600185610efb9190613d22565b94505b50508080610f0b90613f29565b915050610df6565b5080935050505090565b610f3883838360405180602001604052806000815250611454565b505050565b6000610f476108d4565b8210610f88576040517f08c379a0000000000000000000000000000000000000000000000000000000008152600401610f7f90613eda565b60405180910390fd5b600b8281548110610f9c57610f9b613efa565b5b90600052602060002001549050919050565b6000808203610ff2576040517f08c379a0000000000000000000000000000000000000000000000000000000008152600401610fe990613fe3565b60405180910390fd5b610ffb82611002565b9050919050565b600061100d82611b79565b9050919050565b61101c6131e6565b600d600083815260200190815260200160002060405180608001604052908160008201548152602001600182015481526020016002820160009054906101000a900473ffffffffffffffffffffffffffffffffffffffff1673ffffffffffffffffffffffffffffffffffffffff1673ffffffffffffffffffffffffffffffffffffffff1681526020016002820160149054906101000a900460ff1615151515815250509050919050565b60008073ffffffffffffffffffffffffffffffffffffffff168273ffffffffffffffffffffffffffffffffffffffff16036111395760006040517f89c62b64000000000000000000000000000000000000000000000000000000008152600401611130919061344b565b60405180910390fd5b600360008373ffffffffffffffffffffffffffffffffffffffff1673ffffffffffffffffffffffffffffffffffffffff168152602001908152602001600020549050919050565b6060600061118d336110c6565b905060008167ffffffffffffffff8111156111ab576111aa613789565b5b6040519080825280602002602001820160405280156111e457816020015b6111d16131e6565b8152602001906001900390816111c95790505b50905060005b828110156112db5760006111fe3383610ce5565b90506000600d600083815260200190815260200160002090508060405180608001604052908160008201548152602001600182015481526020016002820160009054906101000a900473ffffffffffffffffffffffffffffffffffffffff1673ffffffffffffffffffffffffffffffffffffffff1673ffffffffffffffffffffffffffffffffffffffff1681526020016002820160149054906101000a900460ff1615151515815250508484815181106112bb576112ba613efa565b5b6020026020010181905250505080806112d390613f29565b9150506111ea565b50809250505090565b6112ec611ee2565b6112f66000611f69565b565b611300611ee2565b60008111611343576040517f08c379a000000000000000000000000000000000000000000000000000000000815260040161133a9061404f565b60405180910390fd5b8060088190555050565b6000600760009054906101000a900473ffffffffffffffffffffffffffffffffffffffff16905090565b60606001805461138690613b58565b80601f01602080910402602001604051908101604052809291908181526020018280546113b290613b58565b80156113ff5780601f106113d4576101008083540402835291602001916113ff565b820191906000526020600020905b8154815290600101906020018083116113e257829003601f168201915b5050505050905090565b6000600c8260405161141b91906140ab565b908152602001604051809103902060009054906101000a900460ff169050919050565b611450611449611c3e565b838361202f565b5050565b61145f848484610a6d565b61146b8484848461219e565b50505050565b600061147c83611409565b156114bc576040517f08c379a00000000000000000000000000000000000000000000000000000000081526004016114b39061410e565b60405180910390fd5b6008543414611500576040517f08c379a00000000000000000000000000000000000000000000000000000000081526004016114f7906141a0565b60405180910390fd5b6001600a60008282546115139190613d22565b9250508190555060016009600082825461152d9190613d22565b925050819055506000600a5490506115453382612355565b61154f8185612373565b61155981846123cf565b6001600c8560405161156b91906140ab565b908152602001604051809103902060006101000a81548160ff0219169083151502179055508091505092915050565b60085481565b60606115ab82611b79565b5060006006600084815260200190815260200160002080546115cc90613b58565b80601f01602080910402602001604051908101604052809291908181526020018280546115f890613b58565b80156116455780601f1061161a57610100808354040283529160200191611645565b820191906000526020600020905b81548152906001019060200180831161162857829003601f168201915b50505050509050600061165661251f565b9050600081510361166b5781925050506116ae565b6000825111156116a05780826040516020016116889291906141c0565b604051602081830303815290604052925050506116ae565b6116a984612536565b925050505b919050565b6000600954905090565b606060006116c96108d4565b905060008060005b83811015611783578573ffffffffffffffffffffffffffffffffffffffff16600d6000600b848154811061170857611707613efa565b5b9060005260206000200154815260200190815260200160002060020160009054906101000a900473ffffffffffffffffffffffffffffffffffffffff1673ffffffffffffffffffffffffffffffffffffffff16036117705760018361176d9190613d22565b92505b808061177b90613f29565b9150506116d1565b5060008267ffffffffffffffff8111156117a05761179f613789565b5b6040519080825280602002602001820160405280156117d957816020015b6117c66131e6565b8152602001906001900390816117be5790505b50905060005b84811015611970578673ffffffffffffffffffffffffffffffffffffffff16600d6000600b848154811061181657611815613efa565b5b9060005260206000200154815260200190815260200160002060020160009054906101000a900473ffffffffffffffffffffffffffffffffffffffff1673ffffffffffffffffffffffffffffffffffffffff160361195d57600d6000600b838154811061188657611885613efa565b5b9060005260206000200154815260200190815260200160002060405180608001604052908160008201548152602001600182015481526020016002820160009054906101000a900473ffffffffffffffffffffffffffffffffffffffff1673ffffffffffffffffffffffffffffffffffffffff1673ffffffffffffffffffffffffffffffffffffffff1681526020016002820160149054906101000a900460ff16151515158152505082848151811061194257611941613efa565b5b602002602001018190525060018361195a9190613d22565b92505b808061196890613f29565b9150506117df565b5080945050505050919050565b6000600560008473ffffffffffffffffffffffffffffffffffffffff1673ffffffffffffffffffffffffffffffffffffffff16815260200190815260200160002060008373ffffffffffffffffffffffffffffffffffffffff1673ffffffffffffffffffffffffffffffffffffffff16815260200190815260200160002060009054906101000a900460ff16905092915050565b611a19611ee2565b600073ffffffffffffffffffffffffffffffffffffffff168173ffffffffffffffffffffffffffffffffffffffff1603611a8b5760006040517f1e4fbdf7000000000000000000000000000000000000000000000000000000008152600401611a82919061344b565b60405180910390fd5b611a9481611f69565b50565b60007f80ac58cd000000000000000000000000000000000000000000000000000000007bffffffffffffffffffffffffffffffffffffffffffffffffffffffff1916827bffffffffffffffffffffffffffffffffffffffffffffffffffffffff19161480611b6257507f5b5e139f000000000000000000000000000000000000000000000000000000007bffffffffffffffffffffffffffffffffffffffffffffffffffffffff1916827bffffffffffffffffffffffffffffffffffffffffffffffffffffffff1916145b80611b725750611b718261259f565b5b9050919050565b600080611b8583612609565b9050600073ffffffffffffffffffffffffffffffffffffffff168173ffffffffffffffffffffffffffffffffffffffff1603611bf857826040517f7e273289000000000000000000000000000000000000000000000000000000008152600401611bef91906134e1565b60405180910390fd5b80915050919050565b60006004600083815260200190815260200160002060009054906101000a900473ffffffffffffffffffffffffffffffffffffffff169050919050565b600033905090565b611c538383836001612646565b505050565b600080611c6685858561280b565b9050600073ffffffffffffffffffffffffffffffffffffffff168173ffffffffffffffffffffffffffffffffffffffff1603611caa57611ca584612a25565b611ce9565b8073ffffffffffffffffffffffffffffffffffffffff168573ffffffffffffffffffffffffffffffffffffffff1614611ce857611ce78185612a6e565b5b5b600073ffffffffffffffffffffffffffffffffffffffff168573ffffffffffffffffffffffffffffffffffffffff1603611d2b57611d2684612bcf565b611d6a565b8073ffffffffffffffffffffffffffffffffffffffff168573ffffffffffffffffffffffffffffffffffffffff1614611d6957611d688585612ca0565b5b5b809150509392505050565b600073ffffffffffffffffffffffffffffffffffffffff168273ffffffffffffffffffffffffffffffffffffffff1603611de75760006040517f64a0ae92000000000000000000000000000000000000000000000000000000008152600401611dde919061344b565b60405180910390fd5b6000611df583836000611c58565b9050600073ffffffffffffffffffffffffffffffffffffffff168173ffffffffffffffffffffffffffffffffffffffff1603611e6857816040517f7e273289000000000000000000000000000000000000000000000000000000008152600401611e5f91906134e1565b60405180910390fd5b8373ffffffffffffffffffffffffffffffffffffffff168173ffffffffffffffffffffffffffffffffffffffff1614611edc578382826040517f64283d7b000000000000000000000000000000000000000000000000000000008152600401611ed393929190613d56565b60405180910390fd5b50505050565b611eea611c3e565b73ffffffffffffffffffffffffffffffffffffffff16611f0861134d565b73ffffffffffffffffffffffffffffffffffffffff1614611f6757611f2b611c3e565b6040517f118cdaa7000000000000000000000000000000000000000000000000000000008152600401611f5e919061344b565b60405180910390fd5b565b6000600760009054906101000a900473ffffffffffffffffffffffffffffffffffffffff16905081600760006101000a81548173ffffffffffffffffffffffffffffffffffffffff021916908373ffffffffffffffffffffffffffffffffffffffff1602179055508173ffffffffffffffffffffffffffffffffffffffff168173ffffffffffffffffffffffffffffffffffffffff167f8be0079c531659141344cd1fd0a4f28419497f9722a3daafe3b4186f6b6457e060405160405180910390a35050565b600073ffffffffffffffffffffffffffffffffffffffff168273ffffffffffffffffffffffffffffffffffffffff16036120a057816040517f5b08ba18000000000000000000000000000000000000000000000000000000008152600401612097919061344b565b60405180910390fd5b80600560008573ffffffffffffffffffffffffffffffffffffffff1673ffffffffffffffffffffffffffffffffffffffff16815260200190815260200160002060008473ffffffffffffffffffffffffffffffffffffffff1673ffffffffffffffffffffffffffffffffffffffff16815260200190815260200160002060006101000a81548160ff0219169083151502179055508173ffffffffffffffffffffffffffffffffffffffff168373ffffffffffffffffffffffffffffffffffffffff167f17307eab39ab6107e8899845ad3d59bd9653f200f220920489ca2b5937696c318360405161219191906132da565b60405180910390a3505050565b60008373ffffffffffffffffffffffffffffffffffffffff163b111561234f578273ffffffffffffffffffffffffffffffffffffffff1663150b7a026121e2611c3e565b8685856040518563ffffffff1660e01b81526004016122049493929190614239565b6020604051808303816000875af192505050801561224057506040513d601f19601f8201168201806040525081019061223d919061429a565b60015b6122c4573d8060008114612270576040519150601f19603f3d011682016040523d82523d6000602084013e612275565b606091505b5060008151036122bc57836040517f64a0ae920000000000000000000000000000000000000000000000000000000081526004016122b3919061344b565b60405180910390fd5b805181602001fd5b63150b7a0260e01b7bffffffffffffffffffffffffffffffffffffffffffffffffffffffff1916817bffffffffffffffffffffffffffffffffffffffffffffffffffffffff19161461234d57836040517f64a0ae92000000000000000000000000000000000000000000000000000000008152600401612344919061344b565b60405180910390fd5b505b50505050565b61236f828260405180602001604052806000815250612d2b565b5050565b806006600084815260200190815260200160002090816123939190614473565b507ff8e1a15aba9398e019f0b49df1a4fde98ee17ae345cb5f6b5e2c27f5033e8ce7826040516123c391906134e1565b60405180910390a15050565b60008111612412576040517f08c379a000000000000000000000000000000000000000000000000000000000815260040161240990614591565b60405180910390fd5b60405180608001604052808381526020018281526020013373ffffffffffffffffffffffffffffffffffffffff16815260200160011515815250600d6000848152602001908152602001600020600082015181600001556020820151816001015560408201518160020160006101000a81548173ffffffffffffffffffffffffffffffffffffffff021916908373ffffffffffffffffffffffffffffffffffffffff16021790555060608201518160020160146101000a81548160ff0219169083151502179055509050507f470031062672bc0246e132c723a729c4676710ec663a29e86c88678032daddea828233600160405161251394939291906145b1565b60405180910390a15050565b606060405180602001604052806000815250905090565b606061254182611b79565b50600061254c61251f565b9050600081511161256c5760405180602001604052806000815250612597565b8061257684612d47565b6040516020016125879291906141c0565b6040516020818303038152906040525b915050919050565b60007f01ffc9a7000000000000000000000000000000000000000000000000000000007bffffffffffffffffffffffffffffffffffffffffffffffffffffffff1916827bffffffffffffffffffffffffffffffffffffffffffffffffffffffff1916149050919050565b60006002600083815260200190815260200160002060009054906101000a900473ffffffffffffffffffffffffffffffffffffffff169050919050565b808061267f5750600073ffffffffffffffffffffffffffffffffffffffff168273ffffffffffffffffffffffffffffffffffffffff1614155b156127b357600061268f84611b79565b9050600073ffffffffffffffffffffffffffffffffffffffff168373ffffffffffffffffffffffffffffffffffffffff16141580156126fa57508273ffffffffffffffffffffffffffffffffffffffff168173ffffffffffffffffffffffffffffffffffffffff1614155b801561270d575061270b818461197d565b155b1561274f57826040517fa9fbf51f000000000000000000000000000000000000000000000000000000008152600401612746919061344b565b60405180910390fd5b81156127b157838573ffffffffffffffffffffffffffffffffffffffff168273ffffffffffffffffffffffffffffffffffffffff167f8c5be1e5ebec7d5bd14f71427d1e84f3dd0314c0f7b2291e5b200ac8c7c3b92560405160405180910390a45b505b836004600085815260200190815260200160002060006101000a81548173ffffffffffffffffffffffffffffffffffffffff021916908373ffffffffffffffffffffffffffffffffffffffff16021790555050505050565b60008061281784612609565b9050600073ffffffffffffffffffffffffffffffffffffffff168373ffffffffffffffffffffffffffffffffffffffff161461285957612858818486612e15565b5b600073ffffffffffffffffffffffffffffffffffffffff168173ffffffffffffffffffffffffffffffffffffffff16146128ea5761289b600085600080612646565b6001600360008373ffffffffffffffffffffffffffffffffffffffff1673ffffffffffffffffffffffffffffffffffffffff168152602001908152602001600020600082825403925050819055505b600073ffffffffffffffffffffffffffffffffffffffff168573ffffffffffffffffffffffffffffffffffffffff161461296d576001600360008773ffffffffffffffffffffffffffffffffffffffff1673ffffffffffffffffffffffffffffffffffffffff168152602001908152602001600020600082825401925050819055505b846002600086815260200190815260200160002060006101000a81548173ffffffffffffffffffffffffffffffffffffffff021916908373ffffffffffffffffffffffffffffffffffffffff160217905550838573ffffffffffffffffffffffffffffffffffffffff168273ffffffffffffffffffffffffffffffffffffffff167fddf252ad1be2c89b69c2b068fc378daa952ba7f163c4a11628f55a4df523b3ef60405160405180910390a4809150509392505050565b600b80549050600e600083815260200190815260200160002081905550600b81908060018154018082558091505060019003906000526020600020016000909190919091505550565b6000612a79836110c6565b9050600060106000848152602001908152602001600020549050818114612b5e576000600f60008673ffffffffffffffffffffffffffffffffffffffff1673ffffffffffffffffffffffffffffffffffffffff168152602001908152602001600020600084815260200190815260200160002054905080600f60008773ffffffffffffffffffffffffffffffffffffffff1673ffffffffffffffffffffffffffffffffffffffff168152602001908152602001600020600084815260200190815260200160002081905550816010600083815260200190815260200160002081905550505b6010600084815260200190815260200160002060009055600f60008573ffffffffffffffffffffffffffffffffffffffff1673ffffffffffffffffffffffffffffffffffffffff16815260200190815260200160002060008381526020019081526020016000206000905550505050565b60006001600b80549050612be391906145f6565b90506000600e60008481526020019081526020016000205490506000600b8381548110612c1357612c12613efa565b5b9060005260206000200154905080600b8381548110612c3557612c34613efa565b5b906000526020600020018190555081600e600083815260200190815260200160002081905550600e600085815260200190815260200160002060009055600b805480612c8457612c8361462a565b5b6001900381819060005260206000200160009055905550505050565b60006001612cad846110c6565b612cb791906145f6565b905081600f60008573ffffffffffffffffffffffffffffffffffffffff1673ffffffffffffffffffffffffffffffffffffffff168152602001908152602001600020600083815260200190815260200160002081905550806010600084815260200190815260200160002081905550505050565b612d358383612ed9565b612d42600084848461219e565b505050565b606060006001612d5684612fd2565b01905060008167ffffffffffffffff811115612d7557612d74613789565b5b6040519080825280601f01601f191660200182016040528015612da75781602001600182028036833780820191505090505b509050600082602001820190505b600115612e0a578080600190039150507f3031323334353637383961626364656600000000000000000000000000000000600a86061a8153600a8581612dfe57612dfd614659565b5b04945060008503612db5575b819350505050919050565b612e20838383613125565b612ed457600073ffffffffffffffffffffffffffffffffffffffff168373ffffffffffffffffffffffffffffffffffffffff1603612e9557806040517f7e273289000000000000000000000000000000000000000000000000000000008152600401612e8c91906134e1565b60405180910390fd5b81816040517f177e802f000000000000000000000000000000000000000000000000000000008152600401612ecb929190614688565b60405180910390fd5b505050565b600073ffffffffffffffffffffffffffffffffffffffff168273ffffffffffffffffffffffffffffffffffffffff1603612f4b5760006040517f64a0ae92000000000000000000000000000000000000000000000000000000008152600401612f42919061344b565b60405180910390fd5b6000612f5983836000611c58565b9050600073ffffffffffffffffffffffffffffffffffffffff168173ffffffffffffffffffffffffffffffffffffffff1614612fcd5760006040517f73c6ac6e000000000000000000000000000000000000000000000000000000008152600401612fc4919061344b565b60405180910390fd5b505050565b600080600090507a184f03e93ff9f4daa797ed6e38ed64bf6a1f0100000000000000008310613030577a184f03e93ff9f4daa797ed6e38ed64bf6a1f010000000000000000838161302657613025614659565b5b0492506040810190505b6d04ee2d6d415b85acef8100000000831061306d576d04ee2d6d415b85acef8100000000838161306357613062614659565b5b0492506020810190505b662386f26fc10000831061309c57662386f26fc10000838161309257613091614659565b5b0492506010810190505b6305f5e10083106130c5576305f5e10083816130bb576130ba614659565b5b0492506008810190505b61271083106130ea5761271083816130e0576130df614659565b5b0492506004810190505b6064831061310d576064838161310357613102614659565b5b0492506002810190505b600a831061311c576001810190505b80915050919050565b60008073ffffffffffffffffffffffffffffffffffffffff168373ffffffffffffffffffffffffffffffffffffffff16141580156131dd57508273ffffffffffffffffffffffffffffffffffffffff168473ffffffffffffffffffffffffffffffffffffffff16148061319e575061319d848461197d565b5b806131dc57508273ffffffffffffffffffffffffffffffffffffffff166131c483611c01565b73ffffffffffffffffffffffffffffffffffffffff16145b5b90509392505050565b60405180608001604052806000815260200160008152602001600073ffffffffffffffffffffffffffffffffffffffff1681526020016000151581525090565b6000604051905090565b600080fd5b600080fd5b60007fffffffff0000000000000000000000000000000000000000000000000000000082169050919050565b61326f8161323a565b811461327a57600080fd5b50565b60008135905061328c81613266565b92915050565b6000602082840312156132a8576132a7613230565b5b60006132b68482850161327d565b91505092915050565b60008115159050919050565b6132d4816132bf565b82525050565b60006020820190506132ef60008301846132cb565b92915050565b600081519050919050565b600082825260208201905092915050565b60005b8381101561332f578082015181840152602081019050613314565b60008484015250505050565b6000601f19601f8301169050919050565b6000613357826132f5565b6133618185613300565b9350613371818560208601613311565b61337a8161333b565b840191505092915050565b6000602082019050818103600083015261339f818461334c565b905092915050565b6000819050919050565b6133ba816133a7565b81146133c557600080fd5b50565b6000813590506133d7816133b1565b92915050565b6000602082840312156133f3576133f2613230565b5b6000613401848285016133c8565b91505092915050565b600073ffffffffffffffffffffffffffffffffffffffff82169050919050565b60006134358261340a565b9050919050565b6134458161342a565b82525050565b6000602082019050613460600083018461343c565b92915050565b61346f8161342a565b811461347a57600080fd5b50565b60008135905061348c81613466565b92915050565b600080604083850312156134a9576134a8613230565b5b60006134b78582860161347d565b92505060206134c8858286016133c8565b9150509250929050565b6134db816133a7565b82525050565b60006020820190506134f660008301846134d2565b92915050565b6000806040838503121561351357613512613230565b5b6000613521858286016133c8565b9250506020613532858286016133c8565b9150509250929050565b60008060006060848603121561355557613554613230565b5b60006135638682870161347d565b93505060206135748682870161347d565b9250506040613585868287016133c8565b9150509250925092565b600081519050919050565b600082825260208201905092915050565b6000819050602082019050919050565b6135c4816133a7565b82525050565b6135d38161342a565b82525050565b6135e2816132bf565b82525050565b6080820160008201516135fe60008501826135bb565b50602082015161361160208501826135bb565b50604082015161362460408501826135ca565b50606082015161363760608501826135d9565b50505050565b600061364983836135e8565b60808301905092915050565b6000602082019050919050565b600061366d8261358f565b613677818561359a565b9350613682836135ab565b8060005b838110156136b357815161369a888261363d565b97506136a583613655565b925050600181019050613686565b5085935050505092915050565b600060208201905081810360008301526136da8184613662565b905092915050565b6080820160008201516136f860008501826135bb565b50602082015161370b60208501826135bb565b50604082015161371e60408501826135ca565b50606082015161373160608501826135d9565b50505050565b600060808201905061374c60008301846136e2565b92915050565b60006020828403121561376857613767613230565b5b60006137768482850161347d565b91505092915050565b600080fd5b600080fd5b7f4e487b7100000000000000000000000000000000000000000000000000000000600052604160045260246000fd5b6137c18261333b565b810181811067ffffffffffffffff821117156137e0576137df613789565b5b80604052505050565b60006137f3613226565b90506137ff82826137b8565b919050565b600067ffffffffffffffff82111561381f5761381e613789565b5b6138288261333b565b9050602081019050919050565b82818337600083830152505050565b600061385761385284613804565b6137e9565b90508281526020810184848401111561387357613872613784565b5b61387e848285613835565b509392505050565b600082601f83011261389b5761389a61377f565b5b81356138ab848260208601613844565b91505092915050565b6000602082840312156138ca576138c9613230565b5b600082013567ffffffffffffffff8111156138e8576138e7613235565b5b6138f484828501613886565b91505092915050565b613906816132bf565b811461391157600080fd5b50565b600081359050613923816138fd565b92915050565b600080604083850312156139405761393f613230565b5b600061394e8582860161347d565b925050602061395f85828601613914565b9150509250929050565b600067ffffffffffffffff82111561398457613983613789565b5b61398d8261333b565b9050602081019050919050565b60006139ad6139a884613969565b6137e9565b9050828152602081018484840111156139c9576139c8613784565b5b6139d4848285613835565b509392505050565b600082601f8301126139f1576139f061377f565b5b8135613a0184826020860161399a565b91505092915050565b60008060008060808587031215613a2457613a23613230565b5b6000613a328782880161347d565b9450506020613a438782880161347d565b9350506040613a54878288016133c8565b925050606085013567ffffffffffffffff811115613a7557613a74613235565b5b613a81878288016139dc565b91505092959194509250565b60008060408385031215613aa457613aa3613230565b5b600083013567ffffffffffffffff811115613ac257613ac1613235565b5b613ace85828601613886565b9250506020613adf858286016133c8565b9150509250929050565b60008060408385031215613b0057613aff613230565b5b6000613b0e8582860161347d565b9250506020613b1f8582860161347d565b9150509250929050565b7f4e487b7100000000000000000000000000000000000000000000000000000000600052602260045260246000fd5b60006002820490506001821680613b7057607f821691505b602082108103613b8357613b82613b29565b5b50919050565b7f596f7520617265206e6f74206f776e6572206f662074686973206e6674000000600082015250565b6000613bbf601d83613300565b9150613bca82613b89565b602082019050919050565b60006020820190508181036000830152613bee81613bb2565b9050919050565b7f4974656d20697320616c7265616479206f6e2073616c65000000000000000000600082015250565b6000613c2b601783613300565b9150613c3682613bf5565b602082019050919050565b60006020820190508181036000830152613c5a81613c1e565b9050919050565b7f5072696365206d75737420626520657175616c20746f206c697374696e67207060008201527f7269636500000000000000000000000000000000000000000000000000000000602082015250565b6000613cbd602483613300565b9150613cc882613c61565b604082019050919050565b60006020820190508181036000830152613cec81613cb0565b9050919050565b7f4e487b7100000000000000000000000000000000000000000000000000000000600052601160045260246000fd5b6000613d2d826133a7565b9150613d38836133a7565b9250828201905080821115613d5057613d4f613cf3565b5b92915050565b6000606082019050613d6b600083018661343c565b613d7860208301856134d2565b613d85604083018461343c565b949350505050565b7f596f7520616c7265616479206f776e2074686973204e46540000000000000000600082015250565b6000613dc3601883613300565b9150613dce82613d8d565b602082019050919050565b60006020820190508181036000830152613df281613db6565b9050919050565b7f506c65617365207375626d6974207468652061736b696e672070726963650000600082015250565b6000613e2f601e83613300565b9150613e3a82613df9565b602082019050919050565b60006020820190508181036000830152613e5e81613e22565b9050919050565b6000613e70826133a7565b915060008203613e8357613e82613cf3565b5b600182039050919050565b7f496e646578206f7574206f6620626f756e647300000000000000000000000000600082015250565b6000613ec4601383613300565b9150613ecf82613e8e565b602082019050919050565b60006020820190508181036000830152613ef381613eb7565b9050919050565b7f4e487b7100000000000000000000000000000000000000000000000000000000600052603260045260246000fd5b6000613f34826133a7565b91507fffffffffffffffffffffffffffffffffffffffffffffffffffffffffffffffff8203613f6657613f65613cf3565b5b600182019050919050565b7f546f6b656e207769746820746869732055524920646f6573206e6f742065786960008201527f7374000000000000000000000000000000000000000000000000000000000000602082015250565b6000613fcd602283613300565b9150613fd882613f71565b604082019050919050565b60006020820190508181036000830152613ffc81613fc0565b9050919050565b7f5072696365206d757374206265206174206c6561737420312077656900000000600082015250565b6000614039601c83613300565b915061404482614003565b602082019050919050565b600060208201905081810360008301526140688161402c565b9050919050565b600081905092915050565b6000614085826132f5565b61408f818561406f565b935061409f818560208601613311565b80840191505092915050565b60006140b7828461407a565b915081905092915050565b7f546f6b656e2055524920616c7265616479206578697374730000000000000000600082015250565b60006140f8601883613300565b9150614103826140c2565b602082019050919050565b60006020820190508181036000830152614127816140eb565b9050919050565b7f5072696365206d75737420626520657175616c20746f206c697374696e67205060008201527f7269636500000000000000000000000000000000000000000000000000000000602082015250565b600061418a602483613300565b91506141958261412e565b604082019050919050565b600060208201905081810360008301526141b98161417d565b9050919050565b60006141cc828561407a565b91506141d8828461407a565b91508190509392505050565b600081519050919050565b600082825260208201905092915050565b600061420b826141e4565b61421581856141ef565b9350614225818560208601613311565b61422e8161333b565b840191505092915050565b600060808201905061424e600083018761343c565b61425b602083018661343c565b61426860408301856134d2565b818103606083015261427a8184614200565b905095945050505050565b60008151905061429481613266565b92915050565b6000602082840312156142b0576142af613230565b5b60006142be84828501614285565b91505092915050565b60008190508160005260206000209050919050565b60006020601f8301049050919050565b600082821b905092915050565b6000600883026143297fffffffffffffffffffffffffffffffffffffffffffffffffffffffffffffffff826142ec565b61433386836142ec565b95508019841693508086168417925050509392505050565b6000819050919050565b600061437061436b614366846133a7565b61434b565b6133a7565b9050919050565b6000819050919050565b61438a83614355565b61439e61439682614377565b8484546142f9565b825550505050565b600090565b6143b36143a6565b6143be818484614381565b505050565b5b818110156143e2576143d76000826143ab565b6001810190506143c4565b5050565b601f821115614427576143f8816142c7565b614401846142dc565b81016020851015614410578190505b61442461441c856142dc565b8301826143c3565b50505b505050565b600082821c905092915050565b600061444a6000198460080261442c565b1980831691505092915050565b60006144638383614439565b9150826002028217905092915050565b61447c826132f5565b67ffffffffffffffff81111561449557614494613789565b5b61449f8254613b58565b6144aa8282856143e6565b600060209050601f8311600181146144dd57600084156144cb578287015190505b6144d58582614457565b86555061453d565b601f1984166144eb866142c7565b60005b82811015614513578489015182556001820191506020850194506020810190506144ee565b86831015614530578489015161452c601f891682614439565b8355505b6001600288020188555050505b505050505050565b7f5072696365206d7573742062652061746c656173742031205765690000000000600082015250565b600061457b601b83613300565b915061458682614545565b602082019050919050565b600060208201905081810360008301526145aa8161456e565b9050919050565b60006080820190506145c660008301876134d2565b6145d360208301866134d2565b6145e0604083018561343c565b6145ed60608301846132cb565b95945050505050565b6000614601826133a7565b915061460c836133a7565b925082820390508181111561462457614623613cf3565b5b92915050565b7f4e487b7100000000000000000000000000000000000000000000000000000000600052603160045260246000fd5b7f4e487b7100000000000000000000000000000000000000000000000000000000600052601260045260246000fd5b600060408201905061469d600083018561343c565b6146aa60208301846134d2565b939250505056fea2646970667358221220304f101c46e3bb002a91d1788e5d900e63371c75ce9fa547fa9eaebb3c1bdc4464736f6c63430008140033",
  "linkReferences": {},
  "deployedLinkReferences": {}
}